{
  "address": "0xCf7Ed3AccA5a467e9e704C703E8D87F634fB0Fc9",
  "abi": [
    {
      "anonymous": false,
      "inputs": [
        {
          "indexed": false,
          "internalType": "uint256",
          "name": "newValue",
          "type": "uint256"
        }
      ],
      "name": "valueChanged",
      "type": "event"
    },
    {
      "inputs": [],
      "name": "increment",
      "outputs": [],
      "stateMutability": "nonpayable",
      "type": "function"
    },
    {
      "inputs": [],
      "name": "retrive",
      "outputs": [
        {
          "internalType": "uint256",
          "name": "",
          "type": "uint256"
        }
      ],
      "stateMutability": "view",
      "type": "function"
    },
    {
      "inputs": [
        {
          "internalType": "uint256",
          "name": "newValue",
          "type": "uint256"
        }
      ],
      "name": "store",
      "outputs": [],
      "stateMutability": "nonpayable",
      "type": "function"
    },
    {
      "inputs": [],
      "name": "version",
      "outputs": [
        {
          "internalType": "uint256",
          "name": "",
          "type": "uint256"
        }
      ],
      "stateMutability": "pure",
      "type": "function"
    }
  ],
  "transactionHash": "0x03c3bee7236ef3f21c6c2f43f76152747e123fec09e9f551cf4bfa3e3ae33d82",
  "args": [],
  "numDeployments": 1,
  "solcInputHash": "d364c0f9700a89b99880665a4d8076de",
  "bytecode": "0x608060405234801561001057600080fd5b506102a3806100206000396000f3fe608060405234801561001057600080fd5b506004361061004c5760003560e01c806354fd4d50146100515780636057361d1461006f578063a6b7fc5b1461008b578063d09de08a146100a9575b600080fd5b6100596100b3565b60405161006691906101a7565b60405180910390f35b6100896004803603810190610084919061016b565b6100bc565b005b6100936100fd565b6040516100a091906101a7565b60405180910390f35b6100b1610106565b005b60006002905090565b806000819055507fc0dd44d3f117c96295a84b2eb7b3f6abe929928d111b030bfb3568f5efa0ff1f816040516100f291906101a7565b60405180910390a150565b60008054905090565b600160005461011591906101c2565b6000819055507fc0dd44d3f117c96295a84b2eb7b3f6abe929928d111b030bfb3568f5efa0ff1f60005460405161014c91906101a7565b60405180910390a1565b60008135905061016581610256565b92915050565b60006020828403121561018157610180610251565b5b600061018f84828501610156565b91505092915050565b6101a181610218565b82525050565b60006020820190506101bc6000830184610198565b92915050565b60006101cd82610218565b91506101d883610218565b9250827fffffffffffffffffffffffffffffffffffffffffffffffffffffffffffffffff0382111561020d5761020c610222565b5b828201905092915050565b6000819050919050565b7f4e487b7100000000000000000000000000000000000000000000000000000000600052601160045260246000fd5b600080fd5b61025f81610218565b811461026a57600080fd5b5056fea26469706673582212209a0ceb02e2952257beff97dfa1d671782aa08ff00e6408d07cca58714f7d442c64736f6c63430008070033",
  "devdoc": {
    "kind": "dev",
    "methods": {},
    "version": 1
  },
  "userdoc": {
    "kind": "user",
    "methods": {},
    "version": 1
  },
  "storageLayout": {
    "storage": [
      {
        "astId": 1243,
        "contract": "contracts/BoxV2.sol:BoxV2",
        "label": "value",
        "offset": 0,
        "slot": "0",
        "type": "t_uint256"
      }
    ],
    "types": {
      "t_uint256": {
        "encoding": "inplace",
        "label": "uint256",
        "numberOfBytes": "32"
      }
    }
  }
}